{
  "transactions": [
    {
      "hash": "0x8625d38a9d384cbae913a2b4bbd71551d8b0559ae3379a4cfac7a5dfe44cc20d",
      "transactionType": "CALL",
      "contractName": null,
      "contractAddress": "0x12baa2f6487d9f5aa7eddfc0c79e09d5bdf6f70d",
      "function": "mint(uint8[15])",
      "arguments": [
        "[1, 1, 1, 1, 1, 1, 1, 1, 1, 1, 1, 1, 1, 1, 1]"
      ],
      "transaction": {
        "from": "0x7fdc80eee466aaa3339c01beb8ddadbc98ecebf2",
        "to": "0x12baa2f6487d9f5aa7eddfc0c79e09d5bdf6f70d",
        "gas": "0x1ac25c",
        "value": "0x0",
        "input": "0x3c2bc206000000000000000000000000000000000000000000000000000000000000000100000000000000000000000000000000000000000000000000000000000000010000000000000000000000000000000000000000000000000000000000000001000000000000000000000000000000000000000000000000000000000000000100000000000000000000000000000000000000000000000000000000000000010000000000000000000000000000000000000000000000000000000000000001000000000000000000000000000000000000000000000000000000000000000100000000000000000000000000000000000000000000000000000000000000010000000000000000000000000000000000000000000000000000000000000001000000000000000000000000000000000000000000000000000000000000000100000000000000000000000000000000000000000000000000000000000000010000000000000000000000000000000000000000000000000000000000000001000000000000000000000000000000000000000000000000000000000000000100000000000000000000000000000000000000000000000000000000000000010000000000000000000000000000000000000000000000000000000000000001",
        "nonce": "0x6",
        "chainId": "0xaa289"
      },
      "additionalContracts": [],
      "isFixedGasLimit": false
    }
  ],
  "receipts": [
    {
      "status": "0x1",
      "cumulativeGasUsed": "0x0",
      "logs": [
        {
          "address": "0x0352b37e5680e324e804b5a6e1addf0a064e201d",
          "topics": [
            "0x2ad3295f69a082e4c980d1f56ac904051ed752c30e3930799a4b8b1baa504bf3",
            "0x0000000000000000000000000000000000000000000000000000000000000269",
            "0xfa80f5eb879bbb7b0add93a238f106525c78bde6458400239cec1767eac23865"
          ],
          "data": "0x00000000000000000000000000000000000000000000000000000000000000c40000000000000000000000004440b5ebebac3dc6c4d4eca62520ef783067eddf",
          "blockHash": "0x775c83f85c20ef02d4b6d4fc70c936888be0e7411d1aacce24bea2718a6fe515",
          "blockNumber": "0x2164f66",
          "transactionHash": "0x8625d38a9d384cbae913a2b4bbd71551d8b0559ae3379a4cfac7a5dfe44cc20d",
          "transactionIndex": "0x0",
          "logIndex": "0x0",
          "removed": false
        },
        {
          "address": "0x4440b5ebebac3dc6c4d4eca62520ef783067eddf",
          "topics": [
            "0xd469a7325078a9e6013e0619cb6e9472faf345ebd8469fe6bf9fc7ee67008e03",
            "0x00000000000000000000000012baa2f6487d9f5aa7eddfc0c79e09d5bdf6f70d",
            "0x00000000000000000000000000000000000000000000000000000000000000c4"
          ],
          "data": "0x",
          "blockHash": "0x775c83f85c20ef02d4b6d4fc70c936888be0e7411d1aacce24bea2718a6fe515",
          "blockNumber": "0x2164f66",
          "transactionHash": "0x8625d38a9d384cbae913a2b4bbd71551d8b0559ae3379a4cfac7a5dfe44cc20d",
          "transactionIndex": "0x0",
          "logIndex": "0x1",
          "removed": false
        },
        {
          "address": "0x12baa2f6487d9f5aa7eddfc0c79e09d5bdf6f70d",
          "topics": [
            "0x509b9a7374c4e52d4f6a2c8c17c4685b28d88433332920c833afc0f7e891eb35",
            "0x0000000000000000000000007fdc80eee466aaa3339c01beb8ddadbc98ecebf2",
            "0x0000000000000000000000000000000000000000000000000000000000000000",
            "0x00000000000000000000000000000000000000000000000000000000000000c4"
          ],
          "data": "0x",
          "blockHash": "0x775c83f85c20ef02d4b6d4fc70c936888be0e7411d1aacce24bea2718a6fe515",
          "blockNumber": "0x2164f66",
          "transactionHash": "0x8625d38a9d384cbae913a2b4bbd71551d8b0559ae3379a4cfac7a5dfe44cc20d",
          "transactionIndex": "0x0",
          "logIndex": "0x2",
          "removed": false
        }
      ],
      "logsBloom": "0x00000000040000000000000000000000000100000000000204000000000000000000000000000000000000000000800000000000010000000100020000000000000000000000000000008008000080000000000800000000000000000000000000000000020000000040000000000840000040000000000000000000000000020000000040000000000000000000000000000000000000000000000000001000000000100004000002000000000000010001000000000000000000000000000400000000008000000000000000000000000010080000000000000000000020000020004000000000000008000000020000000000008000000000000000040000",
      "type": "0x0",
      "transactionHash": "0x8625d38a9d384cbae913a2b4bbd71551d8b0559ae3379a4cfac7a5dfe44cc20d",
      "transactionIndex": "0x0",
      "blockHash": "0x775c83f85c20ef02d4b6d4fc70c936888be0e7411d1aacce24bea2718a6fe515",
      "blockNumber": "0x2164f66",
      "gasUsed": "0x124c02",
      "effectiveGasPrice": "0x3b9aca00",
      "from": "0x7fdc80eee466aaa3339c01beb8ddadbc98ecebf2",
      "to": "0x12baa2f6487d9f5aa7eddfc0c79e09d5bdf6f70d",
      "contractAddress": "0x12baa2f6487d9f5aa7eddfc0c79e09d5bdf6f70d"
    }
  ],
  "libraries": [],
  "pending": [],
  "returns": {},
  "timestamp": 1725647999,
  "chain": 696969,
  "commit": "f6899d7"
}