{
  "transactions": [
    {
      "hash": "0x074515022a4ae95426269302a89bb4ef026fe54224a60b6c5e45395d9bc1045c",
      "transactionType": "CALL",
      "contractName": null,
      "contractAddress": "0x2a7de619ebabd3e73cf1a6518f2619b2fe11998a",
      "function": "mint(uint8[15])",
      "arguments": [
        "[1, 2, 1, 1, 1, 1, 1, 1, 1, 1, 1, 1, 1, 1, 1]"
      ],
      "transaction": {
        "from": "0x7fdc80eee466aaa3339c01beb8ddadbc98ecebf2",
        "to": "0x2a7de619ebabd3e73cf1a6518f2619b2fe11998a",
        "gas": "0x1951ce",
        "value": "0x0",
        "input": "0x3c2bc206000000000000000000000000000000000000000000000000000000000000000100000000000000000000000000000000000000000000000000000000000000020000000000000000000000000000000000000000000000000000000000000001000000000000000000000000000000000000000000000000000000000000000100000000000000000000000000000000000000000000000000000000000000010000000000000000000000000000000000000000000000000000000000000001000000000000000000000000000000000000000000000000000000000000000100000000000000000000000000000000000000000000000000000000000000010000000000000000000000000000000000000000000000000000000000000001000000000000000000000000000000000000000000000000000000000000000100000000000000000000000000000000000000000000000000000000000000010000000000000000000000000000000000000000000000000000000000000001000000000000000000000000000000000000000000000000000000000000000100000000000000000000000000000000000000000000000000000000000000010000000000000000000000000000000000000000000000000000000000000001",
        "nonce": "0x8",
        "chainId": "0xaa289"
      },
      "additionalContracts": [],
      "isFixedGasLimit": false
    }
  ],
  "receipts": [
    {
      "status": "0x1",
      "cumulativeGasUsed": "0x0",
      "logs": [
        {
          "address": "0x0352b37e5680e324e804b5a6e1addf0a064e201d",
          "topics": [
            "0x2ad3295f69a082e4c980d1f56ac904051ed752c30e3930799a4b8b1baa504bf3",
            "0x000000000000000000000000000000000000000000000000000000000000026a",
            "0xb09e52a8ac5ca38b7cfeb3d363b842b687b54fabfd61c0532aed7147455ea778"
          ],
          "data": "0x00000000000000000000000000000000000000000000000000000000000000c50000000000000000000000004440b5ebebac3dc6c4d4eca62520ef783067eddf",
          "blockHash": "0xbd3fba9bf7dae4acfa052617eccc537fffc7c581baae09979d022dcd55bd5924",
          "blockNumber": "0x21665fe",
          "transactionHash": "0x074515022a4ae95426269302a89bb4ef026fe54224a60b6c5e45395d9bc1045c",
          "transactionIndex": "0x0",
          "logIndex": "0x0",
          "removed": false
        },
        {
          "address": "0x4440b5ebebac3dc6c4d4eca62520ef783067eddf",
          "topics": [
            "0xd469a7325078a9e6013e0619cb6e9472faf345ebd8469fe6bf9fc7ee67008e03",
            "0x0000000000000000000000002a7de619ebabd3e73cf1a6518f2619b2fe11998a",
            "0x00000000000000000000000000000000000000000000000000000000000000c5"
          ],
          "data": "0x",
          "blockHash": "0xbd3fba9bf7dae4acfa052617eccc537fffc7c581baae09979d022dcd55bd5924",
          "blockNumber": "0x21665fe",
          "transactionHash": "0x074515022a4ae95426269302a89bb4ef026fe54224a60b6c5e45395d9bc1045c",
          "transactionIndex": "0x0",
          "logIndex": "0x1",
          "removed": false
        },
        {
          "address": "0x2a7de619ebabd3e73cf1a6518f2619b2fe11998a",
          "topics": [
            "0x509b9a7374c4e52d4f6a2c8c17c4685b28d88433332920c833afc0f7e891eb35",
            "0x0000000000000000000000007fdc80eee466aaa3339c01beb8ddadbc98ecebf2",
            "0x0000000000000000000000000000000000000000000000000000000000000000",
            "0x00000000000000000000000000000000000000000000000000000000000000c5"
          ],
          "data": "0x",
          "blockHash": "0xbd3fba9bf7dae4acfa052617eccc537fffc7c581baae09979d022dcd55bd5924",
          "blockNumber": "0x21665fe",
          "transactionHash": "0x074515022a4ae95426269302a89bb4ef026fe54224a60b6c5e45395d9bc1045c",
          "transactionIndex": "0x0",
          "logIndex": "0x2",
          "removed": false
        }
      ],
      "logsBloom": "0x00000000040000000000000000000000000000008000000004000000000000100000000000000000000040000000800000000000020000800100020000000000000000000000008000000008110080000000000800000000000000000000000000000000420000000000000000000800000040000000000000000000000000000000000040000000000000000000000000000000000000001000000000000000000000100000200002000000000000010000000000000000000000000080000400000000000000000000000000000000000000000000000000000000000020200020004000000000000008000000020000000000000000000000000000050000",
      "type": "0x0",
      "transactionHash": "0x074515022a4ae95426269302a89bb4ef026fe54224a60b6c5e45395d9bc1045c",
      "transactionIndex": "0x0",
      "blockHash": "0xbd3fba9bf7dae4acfa052617eccc537fffc7c581baae09979d022dcd55bd5924",
      "blockNumber": "0x21665fe",
      "gasUsed": "0x1254b6",
      "effectiveGasPrice": "0x3b9aca00",
      "from": "0x7fdc80eee466aaa3339c01beb8ddadbc98ecebf2",
      "to": "0x2a7de619ebabd3e73cf1a6518f2619b2fe11998a",
      "contractAddress": "0x2a7de619ebabd3e73cf1a6518f2619b2fe11998a"
    }
  ],
  "libraries": [],
  "pending": [],
  "returns": {},
  "timestamp": 1725650377,
  "chain": 696969,
  "commit": "f6899d7"
}