{
  "transactions": [
    {
      "hash": "0xcd8eb653b1ec553f17c4bcad4c7faa9951cbc0adf77f3608fd0dbf2b458dfdf7",
      "transactionType": "CREATE",
      "contractName": "BreedDalleNFT",
      "contractAddress": "0x17633ffd555b5dde735006af7f591e41e1142b25",
      "function": null,
      "arguments": [
        "0x4440b5eBEBac3DC6C4d4Eca62520ef783067EdDf"
      ],
      "transaction": {
        "from": "0x7fdc80eee466aaa3339c01beb8ddadbc98ecebf2",
        "gas": "0x34f46e",
        "value": "0x0",
        "input": "0x608060405234610cbb576122076020813803918261001c81610cdf565b938492833981010312610cbb57516001600160a01b03811690819003610cbb576040516101e081016001600160401b03811182821017610ca557604052610061610cc0565b61006b6040610cdf565b601081526f436f7a79206c6976696e6720726f6f6d60801b602082015281526100946040610cdf565b600b81526a131d5cda08199bdc995cdd60aa1b602082015260208201526100bb6040610cdf565b60138152724372656174697665206172742073747564696f60681b602082015260408201526100ea6040610cdf565b6013815272159a589c985b9d0818da5d1e481cdd1c99595d606a1b602082015260608201528152610119610cc0565b6101236040610cdf565b60158152600080516020612167833981519152602082015281526101476040610cdf565b601981526000805160206121a78339815191526020820152602082015261016e6040610cdf565b601c8152600080516020612127833981519152602082015260408201526101956040610cdf565b601581526000805160206121878339815191526020820152606082015260208201526101bf610cc0565b6101c96040610cdf565b60208152600080516020612107833981519152602082015281526101ed6040610cdf565b601b81526000805160206121c7833981519152602082015260208201526102146040610cdf565b601881526000805160206121e78339815191526020820152604082015261023b6040610cdf565b60158152600080516020612147833981519152602082015260608201526040820152610265610cc0565b61026f6040610cdf565b601581527f456e6572676574696320616e6420706c617966756c0000000000000000000000602082015281526102a56040610cdf565b6012815271109bdb1908185b990818dbdb999a59195b9d60721b602082015260208201526102d36040610cdf565b6013815272526f6d616e74696320616e6420647265616d7960681b602082015260408201526103026040610cdf565b601681527f4d7973746572696f757320616e6420656c75736976650000000000000000000060208201526060820152606082015261033e610cc0565b6103486040610cdf565b601181527054726f706963616c20706172616469736560781b602082015281526103726040610cdf565b6011815270486973746f72696320656c6567616e636560781b6020820152602082015261039f6040610cdf565b600d81526c536572656e65206e617475726560981b602082015260408201526103c86040610cdf565b601081526f155c98985b88195e18da5d195b595b9d60821b6020820152606082015260808201526103f7610cc0565b6104016040610cdf565b600b81526a0a6eadcdcf240c4cac2c6d60ab1b602082015281526104256040610cdf565b600a81526921b7bd3c9031b0b134b760b11b6020820152602082015261044b6040610cdf565b601081526f109d5cde4818da5d1e481cdd1c99595d60821b602082015260408201526104776040610cdf565b6011815270135e5cdd195c9a5bdd5cc8199bdc995cdd607a1b6020820152606082015260a08201526104a7610cc0565b6104b16040610cdf565b6013815272159a589c985b9d0818da5d1e481cdd1c99595d606a1b602082015281526104dd6040610cdf565b601081526f436f7a79206c6976696e6720726f6f6d60801b602082015260208201526105096040610cdf565b600b81526a131d5cda08199bdc995cdd60aa1b602082015260408201526105306040610cdf565b60138152724372656174697665206172742073747564696f60681b6020820152606082015260c0820152610562610cc0565b61056c6040610cdf565b601981526000805160206121a7833981519152602082015281526105906040610cdf565b60158152600080516020612167833981519152602082015260208201526105b76040610cdf565b601c8152600080516020612127833981519152602082015260408201526105de6040610cdf565b601581526000805160206121878339815191526020820152606082015260e0820152610608610cc0565b6106126040610cdf565b601b81526000805160206121c7833981519152602082015281526106366040610cdf565b602081526000805160206121078339815191526020820152602082015261065d6040610cdf565b601881526000805160206121e7833981519152602082015260408201526106846040610cdf565b60158152600080516020612147833981519152602082015260608201526101008201526106af610cc0565b6106b96040610cdf565b6012815271109bdb1908185b990818dbdb999a59195b9d60721b602082015281526106e46040610cdf565b601581527f456e6572676574696320616e6420706c617966756c00000000000000000000006020820152602082015261071d6040610cdf565b6013815272526f6d616e74696320616e6420647265616d7960681b6020820152604082015261074c6040610cdf565b601681527f4d7973746572696f757320616e6420656c75736976650000000000000000000060208201526060820152610120820152610789610cc0565b6107936040610cdf565b6011815270486973746f72696320656c6567616e636560781b602082015281526107bd6040610cdf565b601181527054726f706963616c20706172616469736560781b602082015260208201526107ea6040610cdf565b600d81526c536572656e65206e617475726560981b602082015260408201526108136040610cdf565b601081526f155c98985b88195e18da5d195b595b9d60821b60208201526060820152610140820152610843610cc0565b61084d6040610cdf565b600a81526921b7bd3c9031b0b134b760b11b602082015281526108706040610cdf565b600b81526a0a6eadcdcf240c4cac2c6d60ab1b602082015260208201526108976040610cdf565b601081526f109d5cde4818da5d1e481cdd1c99595d60821b602082015260408201526108c36040610cdf565b6011815270135e5cdd195c9a5bdd5cc8199bdc995cdd607a1b602082015260608201526101608201526108f4610cc0565b6108fe6040610cdf565b601081526f436f7a79206c6976696e6720726f6f6d60801b602082015281526109276040610cdf565b6013815272159a589c985b9d0818da5d1e481cdd1c99595d606a1b602082015260208201526109566040610cdf565b60138152724372656174697665206172742073747564696f60681b602082015260408201526109856040610cdf565b600b81526a131d5cda08199bdc995cdd60aa1b602082015260608201526101808201526109b0610cc0565b6109ba6040610cdf565b60158152600080516020612167833981519152602082015281526109de6040610cdf565b6015815260008051602061218783398151915260208201526020820152610a056040610cdf565b601981526000805160206121a783398151915260208201526040820152610a2c6040610cdf565b601c8152600080516020612127833981519152602082015260608201526101a0820152610a57610cc0565b610a616040610cdf565b601b81526000805160206121c783398151915260208201528152610a856040610cdf565b6015815260008051602061214783398151915260208201526020820152610aac6040610cdf565b6020815260008051602061210783398151915260208201526040820152610ad36040610cdf565b601881526000805160206121e7833981519152602082015260608201526101c0820152600080915b600f8310610b29576000603d55603c80546001600160a01b031916851790556040516114029081610d058239f35b8051826000915b60048310610b4e575050506004602060019201920192019190610afb565b80518051906001600160401b038211610ca5578354600181811c91168015610c9b575b6020821014610c8557601f8111610c3d575b50602090601f8311600114610bd0579282600194936020938695600092610bc5575b5050600019600383901b1c191690841b1785555b01920192019190610b30565b015190503880610ba5565b90601f1983169185600052816000209260005b818110610c255750936020936001969387969383889510610c0c575b505050811b018555610bb9565b015160001960f88460031b161c19169055388080610bff565b92936020600181928786015181550195019301610be3565b846000526020600020601f840160051c81019160208510610c7b575b601f0160051c01905b818110610c6f5750610b83565b60008155600101610c62565b9091508190610c59565b634e487b7160e01b600052602260045260246000fd5b90607f1690610b71565b634e487b7160e01b600052604160045260246000fd5b600080fd5b60405190608082016001600160401b03811183821017610ca557604052565b6040519190601f01601f191682016001600160401b03811183821017610ca55760405256fe608080604052600436101561001357600080fd5b600090813560e01c9081630220ecd91461084357508063150b7a02146107cd57806315ab9fa314610798578063171314f11461077a5780632e1a7d4d146105d957806337858cf11461052f5780633a7090b71461029d5780633c2bc2061461026f5780634d93012e146102485780634e3b1281146101f9578063c08bfd03146101d05763cf73cdd2146100a557600080fd5b346101cd5760203660031901126101cd576101bd60406101c9926004358152603e602052206040516100d6816108d9565b60018060a01b03825416815260018201546020820152606060ff6003604051948260028201548181168852818160081c166020890152818160101c166040890152818160181c1686890152818160201c166080890152818160281c1660a0890152818160301c1660c0890152818160381c1660e0890152818160401c16610100890152818160481c16610120890152818160501c16610140890152818160581c166101608901528181871c16610180890152818160681c166101a089015260701c166101c08701526101aa6101e08761090b565b8560408601520154161515910152610cb4565b60405191829182610a20565b0390f35b80fd5b50346101cd57806003193601126101cd57603c546040516001600160a01b039091168152602090f35b50346101cd5760203660031901126101cd5760406060916004358152603e6020522060018060a01b038154169060ff600360018301549201541690604051928352602083015215156040820152f35b50346101cd576101e03660031901126101cd576101c96101bd61026a36610a4c565b610cb4565b50346101cd576101e03660031901126101cd57602061029561029036610a4c565b610b5d565b604051908152f35b50346101cd576102ac366108c3565b818352603e60205260408320604051936102c5856108d9565b60018060a01b0382541685526001820154602086015260ff6003604051938260028201548181168752818160081c166020880152818160101c166040880152818160181c166060880152818160201c166080880152818160281c1660a0880152818160301c1660c0880152818160381c1660e0880152818160401c16610100880152818160481c16610120880152818160501c16610140880152818160581c16610160880152818160601c16610180880152818160681c166101a088015260701c166101c08601526103996101e08661090b565b6040880194855201541615156060860152828152603e6020526040812094604051906103c4826108d9565b60018060a01b0387541682526001870154602083015260ff6003604051988260028201548181168c52818160081c1660208d0152818160101c1660408d0152818160181c1660608d0152818160201c1660808d0152818160281c1660a08d0152818160301c1660c08d0152818160381c1660e08d0152818160401c166101008d0152818160481c166101208d0152818160501c166101408d0152818160581c166101608d0152818160601c166101808d0152818160681c166101a08d015260701c166101c08b01526104986101e08b61090b565b60408501998a5201541615156060830152516001600160a01b031633148015919061051a575b5061050b57506102906020946104d79251905190610ac2565b916040518381527fea5fe08c3662b97aae427b46267d63bb9ca03a6440b30e8b93f54bd428269060853392a4604051908152f35b630b46a70d60e31b8152600490fd5b516001600160a01b03163314159050386104be565b50346101cd576103c03660031901126101cd5761054b36610a4c565b903661020312156101cd576101e090604051610567838261090b565b8093366103c4116105d5576101e4945b6103c486106105b757509061058b91610ac2565b60405191825b600f821061059e57505050f35b60208060019260ff865116815201930191019091610591565b853560ff811681036105d157815260209586019501610577565b8480fd5b8280fd5b50346101cd5760203660031901126101cd576004358152603e6020526040812060405190610606826108d9565b60018060a01b03815416825260ff6003600183015492602085019384526040518360028301548181168352818160081c166020840152818160101c166040840152818160181c166060840152818160201c166080840152818160281c1660a0840152818160301c1660c0840152818160381c1660e0840152818160401c16610100840152818160481c16610120840152818160501c16610140840152818160581c16610160840152818160601c16610180840152818160681c166101a084015260701c166101c08201526106dc6101e08261090b565b60408601520154161515606083015281516001600160a01b0316330361076b57603c54915190516001600160a01b039283169284921690833b156105d55760648392836040519687948593632142170760e11b8552306004860152602485015260448401525af1801561075e576107505780f35b6107599161090b565b388180f35b50604051903d90823e3d90fd5b630b46a70d60e31b8352600483fd5b50346101cd57806003193601126101cd576020603d54604051908152f35b50346101cd576107a7366108c3565b90600f8110156105d55760048210156105d557906101bd916101c9935060021b0161092d565b50346101cd5760803660031901126101cd576107e7610892565b506107f06108ad565b5060643567ffffffffffffffff811161083f573660238201121561083f57806004013567ffffffffffffffff81116105d557369101602401116101cd57604051630a85bd0160e11b8152602090f35b5080fd5b90503461083f57602036600319011261083f57600435603f548110156105d557603f8360209450527fc03004e3ce0784bf68186394306849f9b7b1200073105cd9aeb554a1802b58fd01548152f35b600435906001600160a01b03821682036108a857565b600080fd5b602435906001600160a01b03821682036108a857565b60409060031901126108a8576004359060243590565b6080810190811067ffffffffffffffff8211176108f557604052565b634e487b7160e01b600052604160045260246000fd5b90601f8019910116810190811067ffffffffffffffff8211176108f557604052565b906040519160008154918260011c926001811680156109f3575b6020851081146109df578487528693929181156109bd5750600114610976575b506109749250038361090b565b565b90506000929192526020600020906000915b8183106109a15750509060206109749282010138610967565b6020919350806001915483858901015201910190918492610988565b90506020925061097494915060ff191682840152151560051b82010138610967565b634e487b7160e01b84526022600452602484fd5b93607f1693610947565b60005b838110610a105750506000910152565b8181015183820152602001610a00565b60409160208252610a4081518092816020860152602086860191016109fd565b601f01601f1916010190565b80602312156108a85760405190610a656101e08361090b565b81906101e4116108a8576004905b6101e48210610a8157505090565b813560ff811681036108a857815260209182019101610a73565b90600f811015610aac5760051b0190565b634e487b7160e01b600052603260045260246000fd5b91906101e060405190610ad5818361090b565b36823780936000926001421615935b600f8110610af3575050505050565b8060ff610b0260019386610a9b565b511660ff610b108386610a9b565b51161080610b56575b15610b435760ff610b2a8286610a9b565b51165b60ff610b398388610a9b565b9116905201610ae4565b60ff610b4f8285610a9b565b5116610b2d565b5085610b19565b90603d546000198114610c8d5760018101603d556000818152603e6020526040812080546001600160a01b03191633178155939081815b600f8110610c69575050610be1610bb5600094936020936002890155610cb4565b603c5460405163271aa34360e01b81529586936001600160a01b03909216928492839160048301610a20565b03925af1918215610c5d57600092610c26575b508160018194950155337f509b9a7374c4e52d4f6a2c8c17c4685b28d88433332920c833afc0f7e891eb35600080a490565b6020949294813d602011610c55575b81610c426020938361090b565b810103126105d157519193506001610bf4565b3d9150610c35565b6040513d6000823e3d90fd5b9091602060019160ff8551169060ff8560031b92831b921b19161793019101610b94565b634e487b7160e01b600052601160045260246000fd5b906004811015610aac5760051b0190565b6040516101e0810181811067ffffffffffffffff8211176108f557604052600080825b600f821061137d5750505060405160c0810181811067ffffffffffffffff8211176108f557604052604051610d0d60408261090b565b601081526f6469676974616c207061696e74696e6760801b60208201528152604051610d3a60408261090b565b60148152733b34b73a30b3b29034b6363ab9ba3930ba34b7b760611b60208201526020820152604051610d6e60408261090b565b6014815273333aba3ab934b9ba34b19019a2103932b73232b960611b60208201526040820152604051610da260408261090b565b601381527230b139ba3930b1ba103bb0ba32b931b7b637b960691b60208201526060820152604051610dd560408261090b565b60098152681c1a5e195b08185c9d60ba1b60208201526080820152604051610dfe60408261090b565b60078152661c1bdc08185c9d60ca1b602082015260a0820152600660ff84511606600660ff82161015610aac5760051b611fe01601519161012082015161012082015160ff16610e4d91610ca3565b51918051825160ff16610e5f91610ca3565b51926020820151602084015160ff16610e7791610ca3565b516040830151604085015160ff16610e8e91610ca3565b5160c084015160c086015160ff16610ea591610ca3565b5161014085015161014087015160ff16610ebe91610ca3565b519161016086015161016088015160ff16610ed891610ca3565b5193604051988996602088019b6a023b2b732b930ba329030960ad1b8d5280519081602b8b019160200191610f0c926109fd565b8801602b81016501037b31030960d51b905281519182603183019160200191610f34926109fd565b01602b01600681016301034b7160e51b905281519182600a83019160200191610f5c926109fd565b0160060160048101650103bb4ba34160d51b905281519182600a83019160200191610f86926109fd565b016004016006810161016160f51b905281519182600883019160200191610fac926109fd565b016006016002810161016160f51b905281519182600483019160200191610fd2926109fd565b016002016002810161016160f51b905281519182600483019160200191610ff8926109fd565b0160020160028101650161030b732160d51b905281519182600883019160200191611022926109fd565b016002016006810161017160f51b905203600601601d198101845260020161104a908461090b565b6060810151606083015160ff1661106091610ca3565b51926101a08201516101a084015160ff1661107a91610ca3565b516080830151608085015160ff1661109191610ca3565b5160a084015160a086015160ff166110a891610ca3565b51906101c08501516101c087015160ff166110c291610ca3565b5192604051978895602087019a8b915180926110dd926109fd565b8601602081017f54686520696d6167652073686f756c642068617665206120000000000000000090528151918260388301916020019161111c926109fd565b01602001601881016b01030ba36b7b9b83432b932960a51b9052602481016b030b7321034b731b63ab232960a51b905281519182603083019160200191611162926109fd565b016018016018810161017160f51b9052601a81016e027bb32b930b636103a3432b6b29d1608d1b9052815191826029830191602001916111a1926109fd565b016018016011810161017160f51b90526013810167024b731b63ab232960c51b905281519182601b830191602001916111d9926109fd565b01601101600a81016401030b732160dd1b905281519182600f83019160200191611202926109fd565b01600a016005810161017160f51b905203600501601d198101845260020161122a908461090b565b60e081015160e083015160ff1661124091610ca3565b519161010082015161010082015160ff1661125a91610ca3565b5191610180015190610180015160ff1661127391610ca3565b51916040519485945190816020870161128b926109fd565b8401602081017f4472657373207468652063686172616374657220696e200000000000000000009052815191826037830191602001916112ca926109fd565b016020016017810161017160f51b90526019810165020b838363c960d51b905281519182601f83019160200191611300926109fd565b01601701600881016e0103b34b9bab0b61039ba3cb632971608d1b90526017810163020b232160e51b905281519182601b83019160200191611341926109fd565b0160080160138101721034b7103a3432903130b1b5b3b937bab7321760691b905203601301600c198101825260130161137a908261090b565b90565b604051611389816108d9565b600084825b600483106113af575050506020826004926001945201930191019091610cd7565b6001602081926113be8561092d565b81520192019201919061138e56fea2646970667358221220d519571fb7b81dac1f209ba51eb4cdc8e741309938355e78f5c76e5e50e21e6464736f6c634300081a00335061727469616c6c79207472616e73706172656e7420626f64792070617274735768697370657220627562626c6573207769746820736563726574730000000053706972616c696e6720636c6f636b2068616e6473000000000000000000000054562072656d6f746520616e6420706f70636f726e000000000000000000000050696c65206f662073686f7070696e67206261677300000000000000000000004465636164656e74206a756e6b20666f6f642073707265616400000000000000466c6f6174696e67206f7220666c79696e6720656c656d656e74730000000000537769726c696e672074686f7567687420627562626c657300000000000000000000000000000000000000004440b5ebebac3dc6c4d4eca62520ef783067eddf",
        "nonce": "0xe",
        "chainId": "0xaa289"
      },
      "additionalContracts": [],
      "isFixedGasLimit": false
    },
    {
      "hash": "0xaf4b9185546d2d0a094f483537fa28a7d5eefee19977dd3061723705279ef7d6",
      "transactionType": "CALL",
      "contractName": "BreedDalleNFT",
      "contractAddress": "0x17633ffd555b5dde735006af7f591e41e1142b25",
      "function": "mint(uint8[15])",
      "arguments": [
        "[1, 2, 3, 1, 1, 1, 1, 1, 1, 1, 1, 1, 1, 1, 1]"
      ],
      "transaction": {
        "from": "0x7fdc80eee466aaa3339c01beb8ddadbc98ecebf2",
        "to": "0x17633ffd555b5dde735006af7f591e41e1142b25",
        "gas": "0x19451a",
        "value": "0x0",
        "input": "0x3c2bc206000000000000000000000000000000000000000000000000000000000000000100000000000000000000000000000000000000000000000000000000000000020000000000000000000000000000000000000000000000000000000000000003000000000000000000000000000000000000000000000000000000000000000100000000000000000000000000000000000000000000000000000000000000010000000000000000000000000000000000000000000000000000000000000001000000000000000000000000000000000000000000000000000000000000000100000000000000000000000000000000000000000000000000000000000000010000000000000000000000000000000000000000000000000000000000000001000000000000000000000000000000000000000000000000000000000000000100000000000000000000000000000000000000000000000000000000000000010000000000000000000000000000000000000000000000000000000000000001000000000000000000000000000000000000000000000000000000000000000100000000000000000000000000000000000000000000000000000000000000010000000000000000000000000000000000000000000000000000000000000001",
        "nonce": "0xf",
        "chainId": "0xaa289"
      },
      "additionalContracts": [],
      "isFixedGasLimit": false
    },
    {
      "hash": "0xa3850592ad6b00f944d92c977e5e4a181903475155e8f2bf2f96fd412aa88a3d",
      "transactionType": "CALL",
      "contractName": "BreedDalleNFT",
      "contractAddress": "0x17633ffd555b5dde735006af7f591e41e1142b25",
      "function": "mint(uint8[15])",
      "arguments": [
        "[1, 2, 3, 1, 1, 1, 1, 1, 1, 1, 1, 1, 1, 2, 1]"
      ],
      "transaction": {
        "from": "0x7fdc80eee466aaa3339c01beb8ddadbc98ecebf2",
        "to": "0x17633ffd555b5dde735006af7f591e41e1142b25",
        "gas": "0x18e8dc",
        "value": "0x0",
        "input": "0x3c2bc206000000000000000000000000000000000000000000000000000000000000000100000000000000000000000000000000000000000000000000000000000000020000000000000000000000000000000000000000000000000000000000000003000000000000000000000000000000000000000000000000000000000000000100000000000000000000000000000000000000000000000000000000000000010000000000000000000000000000000000000000000000000000000000000001000000000000000000000000000000000000000000000000000000000000000100000000000000000000000000000000000000000000000000000000000000010000000000000000000000000000000000000000000000000000000000000001000000000000000000000000000000000000000000000000000000000000000100000000000000000000000000000000000000000000000000000000000000010000000000000000000000000000000000000000000000000000000000000001000000000000000000000000000000000000000000000000000000000000000100000000000000000000000000000000000000000000000000000000000000020000000000000000000000000000000000000000000000000000000000000001",
        "nonce": "0x10",
        "chainId": "0xaa289"
      },
      "additionalContracts": [],
      "isFixedGasLimit": false
    },
    {
      "hash": "0xb5775b7f4283772e9bbbdacf506328ce377c488be547e142d9575b9b415f8971",
      "transactionType": "CALL",
      "contractName": "BreedDalleNFT",
      "contractAddress": "0x17633ffd555b5dde735006af7f591e41e1142b25",
      "function": "crossBreedAndMint(uint256,uint256)",
      "arguments": [
        "0",
        "1"
      ],
      "transaction": {
        "from": "0x7fdc80eee466aaa3339c01beb8ddadbc98ecebf2",
        "to": "0x17633ffd555b5dde735006af7f591e41e1142b25",
        "gas": "0x1ae806",
        "value": "0x0",
        "input": "0x3a7090b700000000000000000000000000000000000000000000000000000000000000000000000000000000000000000000000000000000000000000000000000000001",
        "nonce": "0x11",
        "chainId": "0xaa289"
      },
      "additionalContracts": [],
      "isFixedGasLimit": false
    }
  ],
  "receipts": [
    {
      "status": "0x1",
      "cumulativeGasUsed": "0x0",
      "logs": [],
      "logsBloom": "0x00000000000000000000000000000000000000000000000000000000000000000000000000000000000000000000000000000000000000000000000000000000000000000000000000000000000000000000000000000000000000000000000000000000000000000000000000000000000000000000000000000000000000000000000000000000000000000000000000000000000000000000000000000000000000000000000000000000000000000000000000000000000000000000000000000000000000000000000000000000000000000000000000000000000000000000000000000000000000000000000000000000000000000000000000000000",
      "type": "0x0",
      "transactionHash": "0xcd8eb653b1ec553f17c4bcad4c7faa9951cbc0adf77f3608fd0dbf2b458dfdf7",
      "transactionIndex": "0x0",
      "blockHash": "0x1b70a678da78c3f3c2fa3a236d0420029dfd07708d480ba492f250d4a1cc0119",
      "blockNumber": "0x2167f81",
      "gasUsed": "0x28be2a",
      "effectiveGasPrice": "0x3b9aca00",
      "from": "0x7fdc80eee466aaa3339c01beb8ddadbc98ecebf2",
      "to": "0x0000000000000000000000000000000000000000",
      "contractAddress": "0x17633ffd555b5dde735006af7f591e41e1142b25"
    },
    {
      "status": "0x1",
      "cumulativeGasUsed": "0x0",
      "logs": [
        {
          "address": "0x0352b37e5680e324e804b5a6e1addf0a064e201d",
          "topics": [
            "0x2ad3295f69a082e4c980d1f56ac904051ed752c30e3930799a4b8b1baa504bf3",
            "0x000000000000000000000000000000000000000000000000000000000000026d",
            "0x0dded40df261a33a92dceacc71563425541c6dcef8b007321bd2e247790b10cc"
          ],
          "data": "0x00000000000000000000000000000000000000000000000000000000000000c80000000000000000000000004440b5ebebac3dc6c4d4eca62520ef783067eddf",
          "blockHash": "0x4c1afd9cc55b1ab235cb9d761b7f01541238ad6329784acfc364de2239a73440",
          "blockNumber": "0x2167f83",
          "transactionHash": "0xaf4b9185546d2d0a094f483537fa28a7d5eefee19977dd3061723705279ef7d6",
          "transactionIndex": "0x0",
          "logIndex": "0x0",
          "removed": false
        },
        {
          "address": "0x4440b5ebebac3dc6c4d4eca62520ef783067eddf",
          "topics": [
            "0xd469a7325078a9e6013e0619cb6e9472faf345ebd8469fe6bf9fc7ee67008e03",
            "0x00000000000000000000000017633ffd555b5dde735006af7f591e41e1142b25",
            "0x00000000000000000000000000000000000000000000000000000000000000c8"
          ],
          "data": "0x",
          "blockHash": "0x4c1afd9cc55b1ab235cb9d761b7f01541238ad6329784acfc364de2239a73440",
          "blockNumber": "0x2167f83",
          "transactionHash": "0xaf4b9185546d2d0a094f483537fa28a7d5eefee19977dd3061723705279ef7d6",
          "transactionIndex": "0x0",
          "logIndex": "0x1",
          "removed": false
        },
        {
          "address": "0x17633ffd555b5dde735006af7f591e41e1142b25",
          "topics": [
            "0x509b9a7374c4e52d4f6a2c8c17c4685b28d88433332920c833afc0f7e891eb35",
            "0x0000000000000000000000007fdc80eee466aaa3339c01beb8ddadbc98ecebf2",
            "0x0000000000000000000000000000000000000000000000000000000000000000",
            "0x00000000000000000000000000000000000000000000000000000000000000c8"
          ],
          "data": "0x",
          "blockHash": "0x4c1afd9cc55b1ab235cb9d761b7f01541238ad6329784acfc364de2239a73440",
          "blockNumber": "0x2167f83",
          "transactionHash": "0xaf4b9185546d2d0a094f483537fa28a7d5eefee19977dd3061723705279ef7d6",
          "transactionIndex": "0x0",
          "logIndex": "0x2",
          "removed": false
        }
      ],
      "logsBloom": "0x000000000400000000000000000000200000000010000000040000008200000000000000000000000000000000008000200000000000000001000200000040000000000000000000000000080000800000000008000000000000000000004000020000000200000000000000000008000000c0000000000000000000000000000000000000400000000000000000000000000000000000000000800000020000000000100000100002000000000000010020000000000000000000000000000400000000000000000000002000000000000000000000000000000000000020000020004000000000000008000000020000000000000000000000000000040000",
      "type": "0x0",
      "transactionHash": "0xaf4b9185546d2d0a094f483537fa28a7d5eefee19977dd3061723705279ef7d6",
      "transactionIndex": "0x0",
      "blockHash": "0x4c1afd9cc55b1ab235cb9d761b7f01541238ad6329784acfc364de2239a73440",
      "blockNumber": "0x2167f83",
      "gasUsed": "0x124b84",
      "effectiveGasPrice": "0x3b9aca00",
      "from": "0x7fdc80eee466aaa3339c01beb8ddadbc98ecebf2",
      "to": "0x17633ffd555b5dde735006af7f591e41e1142b25",
      "contractAddress": "0x17633ffd555b5dde735006af7f591e41e1142b25"
    },
    {
      "status": "0x1",
      "cumulativeGasUsed": "0x0",
      "logs": [
        {
          "address": "0x0352b37e5680e324e804b5a6e1addf0a064e201d",
          "topics": [
            "0x2ad3295f69a082e4c980d1f56ac904051ed752c30e3930799a4b8b1baa504bf3",
            "0x000000000000000000000000000000000000000000000000000000000000026e",
            "0x6c7aa1cda8cbf60ea0cfc97716c9d6384977cc1600fc8c39934485fef5461355"
          ],
          "data": "0x00000000000000000000000000000000000000000000000000000000000000c90000000000000000000000004440b5ebebac3dc6c4d4eca62520ef783067eddf",
          "blockHash": "0x18fe88738c60b982c2d727b0ede5b112ec262a4ae7e6824b6c627568ddcf7273",
          "blockNumber": "0x2167f84",
          "transactionHash": "0xa3850592ad6b00f944d92c977e5e4a181903475155e8f2bf2f96fd412aa88a3d",
          "transactionIndex": "0x0",
          "logIndex": "0x0",
          "removed": false
        },
        {
          "address": "0x4440b5ebebac3dc6c4d4eca62520ef783067eddf",
          "topics": [
            "0xd469a7325078a9e6013e0619cb6e9472faf345ebd8469fe6bf9fc7ee67008e03",
            "0x00000000000000000000000017633ffd555b5dde735006af7f591e41e1142b25",
            "0x00000000000000000000000000000000000000000000000000000000000000c9"
          ],
          "data": "0x",
          "blockHash": "0x18fe88738c60b982c2d727b0ede5b112ec262a4ae7e6824b6c627568ddcf7273",
          "blockNumber": "0x2167f84",
          "transactionHash": "0xa3850592ad6b00f944d92c977e5e4a181903475155e8f2bf2f96fd412aa88a3d",
          "transactionIndex": "0x0",
          "logIndex": "0x1",
          "removed": false
        },
        {
          "address": "0x17633ffd555b5dde735006af7f591e41e1142b25",
          "topics": [
            "0x509b9a7374c4e52d4f6a2c8c17c4685b28d88433332920c833afc0f7e891eb35",
            "0x0000000000000000000000007fdc80eee466aaa3339c01beb8ddadbc98ecebf2",
            "0x0000000000000000000000000000000000000000000000000000000000000001",
            "0x00000000000000000000000000000000000000000000000000000000000000c9"
          ],
          "data": "0x",
          "blockHash": "0x18fe88738c60b982c2d727b0ede5b112ec262a4ae7e6824b6c627568ddcf7273",
          "blockNumber": "0x2167f84",
          "transactionHash": "0xa3850592ad6b00f944d92c977e5e4a181903475155e8f2bf2f96fd412aa88a3d",
          "transactionIndex": "0x0",
          "logIndex": "0x2",
          "removed": false
        }
      ],
      "logsBloom": "0x00000000040000000000000000000000000000001000000004000000022000000000000000000000400000000000800020000000000000000100020000044040000000000000000000000008000080000000800800040000000000000020000000000000000000020000800000000000000040004000000000000000000000000000000000000000000000000000000000000000000000000000800000020000000000100000000002000000000000010000000000000000000000000000000400000000000000000000000000000000000000000000000000000000000040000020004000000000000008000000020000000000000000000000000000040000",
      "type": "0x0",
      "transactionHash": "0xa3850592ad6b00f944d92c977e5e4a181903475155e8f2bf2f96fd412aa88a3d",
      "transactionIndex": "0x0",
      "blockHash": "0x18fe88738c60b982c2d727b0ede5b112ec262a4ae7e6824b6c627568ddcf7273",
      "blockNumber": "0x2167f84",
      "gasUsed": "0x1208bc",
      "effectiveGasPrice": "0x3b9aca00",
      "from": "0x7fdc80eee466aaa3339c01beb8ddadbc98ecebf2",
      "to": "0x17633ffd555b5dde735006af7f591e41e1142b25",
      "contractAddress": "0x17633ffd555b5dde735006af7f591e41e1142b25"
    },
    {
      "status": "0x1",
      "cumulativeGasUsed": "0x0",
      "logs": [
        {
          "address": "0x0352b37e5680e324e804b5a6e1addf0a064e201d",
          "topics": [
            "0x2ad3295f69a082e4c980d1f56ac904051ed752c30e3930799a4b8b1baa504bf3",
            "0x000000000000000000000000000000000000000000000000000000000000026f",
            "0x6c7aa1cda8cbf60ea0cfc97716c9d6384977cc1600fc8c39934485fef5461355"
          ],
          "data": "0x00000000000000000000000000000000000000000000000000000000000000ca0000000000000000000000004440b5ebebac3dc6c4d4eca62520ef783067eddf",
          "blockHash": "0x18fe88738c60b982c2d727b0ede5b112ec262a4ae7e6824b6c627568ddcf7273",
          "blockNumber": "0x2167f84",
          "transactionHash": "0xb5775b7f4283772e9bbbdacf506328ce377c488be547e142d9575b9b415f8971",
          "transactionIndex": "0x1",
          "logIndex": "0x0",
          "removed": false
        },
        {
          "address": "0x4440b5ebebac3dc6c4d4eca62520ef783067eddf",
          "topics": [
            "0xd469a7325078a9e6013e0619cb6e9472faf345ebd8469fe6bf9fc7ee67008e03",
            "0x00000000000000000000000017633ffd555b5dde735006af7f591e41e1142b25",
            "0x00000000000000000000000000000000000000000000000000000000000000ca"
          ],
          "data": "0x",
          "blockHash": "0x18fe88738c60b982c2d727b0ede5b112ec262a4ae7e6824b6c627568ddcf7273",
          "blockNumber": "0x2167f84",
          "transactionHash": "0xb5775b7f4283772e9bbbdacf506328ce377c488be547e142d9575b9b415f8971",
          "transactionIndex": "0x1",
          "logIndex": "0x1",
          "removed": false
        },
        {
          "address": "0x17633ffd555b5dde735006af7f591e41e1142b25",
          "topics": [
            "0x509b9a7374c4e52d4f6a2c8c17c4685b28d88433332920c833afc0f7e891eb35",
            "0x0000000000000000000000007fdc80eee466aaa3339c01beb8ddadbc98ecebf2",
            "0x0000000000000000000000000000000000000000000000000000000000000002",
            "0x00000000000000000000000000000000000000000000000000000000000000ca"
          ],
          "data": "0x",
          "blockHash": "0x18fe88738c60b982c2d727b0ede5b112ec262a4ae7e6824b6c627568ddcf7273",
          "blockNumber": "0x2167f84",
          "transactionHash": "0xb5775b7f4283772e9bbbdacf506328ce377c488be547e142d9575b9b415f8971",
          "transactionIndex": "0x1",
          "logIndex": "0x2",
          "removed": false
        },
        {
          "address": "0x17633ffd555b5dde735006af7f591e41e1142b25",
          "topics": [
            "0xea5fe08c3662b97aae427b46267d63bb9ca03a6440b30e8b93f54bd428269060",
            "0x0000000000000000000000007fdc80eee466aaa3339c01beb8ddadbc98ecebf2",
            "0x0000000000000000000000000000000000000000000000000000000000000000",
            "0x0000000000000000000000000000000000000000000000000000000000000001"
          ],
          "data": "0x00000000000000000000000000000000000000000000000000000000000000ca",
          "blockHash": "0x18fe88738c60b982c2d727b0ede5b112ec262a4ae7e6824b6c627568ddcf7273",
          "blockNumber": "0x2167f84",
          "transactionHash": "0xb5775b7f4283772e9bbbdacf506328ce377c488be547e142d9575b9b415f8971",
          "transactionIndex": "0x1",
          "logIndex": "0x3",
          "removed": false
        }
      ],
      "logsBloom": "0x04000000040000000000000000000000000000001000800004000000020000000000000000000000000000000000800020100000000000000100020000044040000000000001000000000008000080000000000800040000000000000020000000000000020000000000800000200800000040000000000000000000000000000001000000000000000000000000000000000000000000000000800000020000000000100080000002000100000000210000000000000000000000000000000400000000000000000000000000000000000000000000020000000000000060000020004000000000000008000000020000000000008000000000000100040000",
      "type": "0x0",
      "transactionHash": "0xb5775b7f4283772e9bbbdacf506328ce377c488be547e142d9575b9b415f8971",
      "transactionIndex": "0x1",
      "blockHash": "0x18fe88738c60b982c2d727b0ede5b112ec262a4ae7e6824b6c627568ddcf7273",
      "blockNumber": "0x2167f84",
      "gasUsed": "0x1265c3",
      "effectiveGasPrice": "0x3b9aca00",
      "from": "0x7fdc80eee466aaa3339c01beb8ddadbc98ecebf2",
      "to": "0x17633ffd555b5dde735006af7f591e41e1142b25",
      "contractAddress": "0x17633ffd555b5dde735006af7f591e41e1142b25"
    }
  ],
  "libraries": [],
  "pending": [],
  "returns": {},
  "timestamp": 1725653065,
  "chain": 696969,
  "commit": "f6899d7"
}