{
  "transactions": [
    {
      "hash": "0x206bbba82196cd847eea58627f8e84096e22bdb509315e9707ec7ff48b185c8a",
      "transactionType": "CREATE",
      "contractName": "BreedDalleNFT",
      "contractAddress": "0x96d9e26d3c6f71838ac2dcef23b256ed51a75e1a",
      "function": null,
      "arguments": [
        "0x4440b5eBEBac3DC6C4d4Eca62520ef783067EdDf"
      ],
      "transaction": {
        "from": "0x7fdc80eee466aaa3339c01beb8ddadbc98ecebf2",
        "gas": "0x2ebc97",
        "value": "0x0",
        "input": "0x608060405234610dda57611e386020813803918261001c81610e1d565b938492833981010312610dda57516001600160a01b03811690819003610dda57610044610ddf565b61004c610dfe565b6100566040610e1d565b6003815262446f6760e81b602082015281526100726040610e1d565b600381526210d85d60ea1b602082015260208201526100916040610e1d565b6004815263109a5c9960e21b602082015260408201526100b16040610e1d565b600681526545786f74696360d01b6020820152606082015281526100d3610dfe565b6100dd6040610e1d565b60118152702ab73ab9bab0b61032bcb29031b7b637b960791b602082015281526101076040610e1d565b601c81527f537472696b696e67206675722f66656174686572207061747465726e00000000602082015260208201526101406040610e1d565b601381527f41646f7261626c652065787072657373696f6e00000000000000000000000000602082015260408201526101796040610e1d565b600f81526e135859da58d85b08195b195b595b9d608a1b6020820152606082015260208201526101a7610dfe565b6101b16040610e1d565b601781527f46616e637920636f6c6c6172206f7220626f7720746965000000000000000000602082015281526101e76040610e1d565b601581527f4375746520686174206f72206865616470696563650000000000000000000000602082015260208201526102206040610e1d565b6012815271476c6173736573206f72206d6f6e6f636c6560701b6020820152604082015261024e6040610e1d565b601e81527f466c6f7765722063726f776e206f72206e617475726520656c656d656e74000060208201526060820152604082015261028a610dfe565b6102946040610e1d565b601281527121b7bd3c903437b6b29034b73a32b934b7b960711b602082015281526102bf6040610e1d565b60118152704c757368206e6174757265207363656e6560781b602082015260208201526102ec6040610e1d565b601b81527f5768696d736963616c2066616e74617379206c616e6473636170650000000000602082015260408201526103256040610e1d565b600f81526e557262616e2063697479736361706560881b602082015260608201526060820152610353610dfe565b61035d6040610e1d565b601181527012185c1c1e48185b99081c1b185e599d5b607a1b602082015281526103876040610e1d565b600f81526e149959d85b08185b99081c1c9bdd59608a1b602082015260208201526103b26040610e1d565b601781527f4d7973746572696f757320616e6420616c6c7572696e67000000000000000000602082015260408201526103eb6040610e1d565b601381527f52656c6178656420616e6420636f6e74656e7400000000000000000000000000602082015260608201526080820152600080915b60058310610c9d5783610435610ddf565b61043d610dfe565b6104476040610e1d565b600c81526b667269656e646c7920646f6760a01b6020820152815261046c6040610e1d565b600b81526a18dd5c9a5bdd5cc818d85d60aa1b602082015260208201526104936040610e1d565b600d81526c18dbdb1bdc999d5b08189a5c99609a1b602082015260408201526104bc6060610e1d565b602381527f6d7973746572696f7573205b73706563696669632065786f74696320616e696d602082015262616c5d60e81b604082015260608201528152610501610dfe565b61050b6040610e1d565b600c81526b5b636f6c6f725d206579657360a01b602082015281526105306040610e1d565b601d81527f5b7061747465726e5d206675722f66656174686572207061747465726e000000602082015260208201526105696060610e1d565b602281527f616e20656e64656172696e67205b73706563696669632065787072657373696f6020820152616e5d60f01b604082015260408201526105ad6040610e1d565b601681527f5b6d61676963616c20656c656d656e745d2061757261000000000000000000006020820152606082015260208201526105e9610dfe565b6105f36040610e1d565b602081527f77656172696e672061205b7374796c655d20636f6c6c61722f626f7720746965602082015281526106296060610e1d565b602381527f61646f726e656420776974682061205b747970655d206861742f68656164706960208201526265636560e81b6040820152602082015261066e6040610e1d565b602081527f73706f7274696e67205b7374796c655d20676c61737365732f6d6f6e6f636c65602082015260408201526106a76060610e1d565b602e81527f63726f776e65642077697468205b74797065206f6620666c6f776572732f6e6160208201526d7475726520656c656d656e74735d60901b6040820152606082015260408201526106fa610dfe565b6107046040610e1d565b601f81527f696e2061207761726d2c20696e766974696e67205b726f6f6d20747970655d006020820152815261073a6060610e1d565b602881527f737572726f756e646564206279205b7370656369666963206e617475726520656020820152676c656d656e74735d60c01b604082015260208201526107846060610e1d565b603081527f696e206120647265616d6c696b65206c616e6473636170652077697468205b6660208201526f616e7461737920656c656d656e74735d60801b604082015260408201526107d66060610e1d565b602581527f616761696e73742061206261636b64726f70206f66205b6369747920656c656d602082015264656e74735d60d81b604082015260608201526060820152610820610dfe565b61082a6040610e1d565b601481527f6a6f7966756c20616e6420656e65726765746963000000000000000000000000602082015281526108606040610e1d565b601681527f6d616a657374696320616e64206469676e696669656400000000000000000000602082015260208201526108996040610e1d565b601981527f656e69676d6174696320616e64206361707469766174696e6700000000000000602082015260408201526108d26040610e1d565b601381527f736572656e6520616e6420706561636566756c0000000000000000000000000060208201526060820152608082015260146000915b60058310610b60578361091d610dfe565b6109276040610e1d565b601481527f7768696d736963616c207761746572636f6c6f720000000000000000000000006020820152815261095d6040610e1d565b601a81527f7265616c6973746963206469676974616c207061696e74696e67000000000000602082015260208201526109966040610e1d565b601081526f39ba3cb634bd32b21031b0b93a37b7b760811b602082015260408201526109c26040610e1d565b601481527f76696e7461676520696c6c757374726174696f6e000000000000000000000000602082015260608201526028906000905b60048210610a26576000602d55602c80546001600160a01b03191685179055604051610fa49081610e948239f35b80518051906001600160401b038211610b4a57610a438554610e42565b601f8111610b0d575b50602090601f8311600114610aa05792610a8683600195946020948796600092610a95575b50508160011b916000199060031b1c19161790565b86555b019301910190916109f8565b015190508a80610a71565b90601f1983169186600052816000209260005b818110610af55750936020936001969387969383889510610adc575b505050811b018655610a89565b015160001960f88460031b161c19169055898080610acf565b92936020600181928786015181550195019301610ab3565b610b3a90866000526020600020601f850160051c81019160208610610b40575b601f0160051c0190610e7c565b86610a4c565b9091508190610b2d565b634e487b7160e01b600052604160045260246000fd5b8051826000915b60048310610b8557505050600460206001920192019201919061090c565b80518051906001600160401b038211610b4a57610ba28454610e42565b601f8111610c6b575b50602090601f8311600114610bfe5792610be483600195946020948796600092610bf35750508160011b916000199060031b1c19161790565b85555b01920192019190610b67565b015190508d80610a71565b90601f1983169185600052816000209260005b818110610c535750936020936001969387969383889510610c3a575b505050811b018555610be7565b015160001960f88460031b161c191690558c8080610c2d565b92936020600181928786015181550195019301610c11565b610c9790856000526020600020601f850160051c81019160208610610b4057601f0160051c0190610e7c565b89610bab565b8051826000915b60048310610cc2575050506004602060019201920192019190610424565b80518051906001600160401b038211610b4a57610cdf8454610e42565b601f8111610da8575b50602090601f8311600114610d3b5792610d2183600195946020948796600092610d305750508160011b916000199060031b1c19161790565b85555b01920192019190610ca4565b015190503880610a71565b90601f1983169185600052816000209260005b818110610d905750936020936001969387969383889510610d77575b505050811b018555610d24565b015160001960f88460031b161c19169055388080610d6a565b92936020600181928786015181550195019301610d4e565b610dd490856000526020600020601f850160051c81019160208610610b4057601f0160051c0190610e7c565b38610ce8565b600080fd5b6040519060a082016001600160401b03811183821017610b4a57604052565b60405190608082016001600160401b03811183821017610b4a57604052565b6040519190601f01601f191682016001600160401b03811183821017610b4a57604052565b90600182811c92168015610e72575b6020831014610e5c57565b634e487b7160e01b600052602260045260246000fd5b91607f1691610e51565b818110610e87575050565b60008155600101610e7c56fe608080604052600436101561001357600080fd5b600090813560e01c9081630220ecd91461077f575080630f5a43fe146106b9578063150b7a0214610643578063171314f1146106255780632e1a7d4d146104fa5780633a7090b7146103545780633b964c051461031f5780634e3b1281146102d0578063849aed6c146102aa578063c08bfd0314610281578063cf73cdd2146101dd578063e9947f0c146101b0578063f3f787681461010b5763f426a772146100bb57600080fd5b34610108576100c9366109bb565b916005821015610108576004831015610108576101046100f86100f2858560021b6014016107ce565b90610882565b60405191829182610941565b0390f35b80fd5b50346101085761014036600319011261010857610127366109d1565b903660c312156101085760405161013f60a082610860565b809236610144116101ac5760a4935b610144851061018e57509061016291610ec3565b60405191825b600582106101755760a084f35b60208060019260ff865116815201930191019091610168565b843560ff811681036101a85781526020948501940161014e565b8480fd5b8280fd5b50346101085760a03660031901126101085760206101d56101d0366109d1565b610d93565b604051908152f35b5034610108576020366003190112610108576100f86040610104926004358152602e6020522060405161020f8161082e565b60018060a01b03825416815260018201546020820152606060ff6003604051948260028201548181168852818160081c166020890152818160101c166040890152818160181c168689015260201c16608087015261026e60a087610860565b8560408601520154161515910152610a9c565b5034610108578060031936011261010857602c546040516001600160a01b039091168152602090f35b50346101085760a0366003190112610108576101046100f86102cb366109d1565b610a9c565b50346101085760203660031901126101085760406060916004358152602e6020522060018060a01b038154169060ff600360018301549201541690604051928352602083015215156040820152f35b50346101085761032e366109bb565b916005821015610108576004831015610108576101046100f86100f2858560021b6107ce565b503461010857610363366109bb565b818352602e602052604083206040519361037c8561082e565b60018060a01b0382541685526001820154602086015260ff6003604051938260028201548181168752818160081c166020880152818160101c166040880152818160181c16606088015260201c1660808601526103da60a086610860565b6040880194855201541615156060860152828152602e6020526040812094604051906104058261082e565b60018060a01b0387541682526001870154602083015260ff6003604051988260028201548181168c52818160081c1660208d0152818160101c1660408d0152818160181c1660608d015260201c1660808b015261046360a08b610860565b60408501998a5201541615156060830152516001600160a01b03163314801591906104e5575b506104d657506101d06020946104a29251905190610ec3565b916040518381527fea5fe08c3662b97aae427b46267d63bb9ca03a6440b30e8b93f54bd428269060853392a4604051908152f35b630b46a70d60e31b8152600490fd5b516001600160a01b0316331415905038610489565b5034610108576020366003190112610108576004358152602e60205260408120604051906105278261082e565b60018060a01b03815416825260ff6003600183015492602085019384526040518360028301548181168352818160081c166020840152818160101c166040840152818160181c16606084015260201c16608082015261058760a082610860565b60408601520154161515606083015281516001600160a01b0316330361061657602c54915190516001600160a01b039283169284921690833b156101ac5760648392836040519687948593632142170760e11b8552306004860152602485015260448401525af18015610609576105fb5780f35b61060491610860565b388180f35b50604051903d90823e3d90fd5b630b46a70d60e31b8352600483fd5b50346101085780600319360112610108576020602d54604051908152f35b50346101085760803660031901126101085761065d61098a565b506106666109a5565b5060643567ffffffffffffffff81116106b557366023820112156106b557806004013567ffffffffffffffff81116101ac573691016024011161010857604051630a85bd0160e11b8152602090f35b5080fd5b50346101085760203660031901126101085760043560048110156106b5576028019060405191818154916106ec836107f4565b80865292600181169081156107555750600114610714575b610104856100f881870382610860565b815260208120939250905b80821061073b575090915081016020016100f882610104610704565b91926001816020925483858801015201910190929161071f565b869550610104969350602092506100f894915060ff191682840152151560051b8201019293610704565b9050346106b55760203660031901126106b557600435602f548110156101ac57602f8360209450527fa813484aef6fb598f9f753daf162068ff39ccea4075cb95e1a30f86995b5b7ee01548152f35b60048210156107de570190600090565b634e487b7160e01b600052603260045260246000fd5b90600182811c92168015610824575b602083101461080e57565b634e487b7160e01b600052602260045260246000fd5b91607f1691610803565b6080810190811067ffffffffffffffff82111761084a57604052565b634e487b7160e01b600052604160045260246000fd5b90601f8019910116810190811067ffffffffffffffff82111761084a57604052565b9061092b576040519081600082549261089a846107f4565b808452936001811690811561090957506001146108c2575b506108bf92500382610860565b90565b90506000929192526020600020906000915b8183106108ed5750509060206108bf92820101386108b2565b60209193508060019154838588010152019101909183926108d4565b9050602092506108bf94915060ff191682840152151560051b820101386108b2565b634e487b7160e01b600052600060045260246000fd5b91909160208152825180602083015260005b818110610974575060409293506000838284010152601f8019910116010190565b8060208092870101516040828601015201610953565b600435906001600160a01b03821682036109a057565b600080fd5b602435906001600160a01b03821682036109a057565b60409060031901126109a0576004359060243590565b80602312156109a057604051906109e960a083610860565b819060a4116109a0576004905b60a48210610a0357505090565b813560ff811681036109a0578152602091820191016109f6565b9060058110156107de5760051b0190565b60009291815491610a3e836107f4565b9260018116908115610a895750600114610a5757505050565b909192935060005260206000206000905b838210610a755750500190565b600181602092548486015201910190610a68565b60ff191683525050811515909102019150565b9060005b60ff81166005811015610b1d5760ff610abb60049286610a1d565b51161015610ace5760010160ff16610aa0565b60405162461bcd60e51b815260206004820152602160248201527f4561636820616e73776572206d75737420626520302c20312c20322c206f72206044820152603360f81b6064820152608490fd5b505060809060405192610b308385610860565b8236853760005b60ff81166005811015610b9c57610b5060ff9184610a1d565b511660ff610b5e8288610f5d565b51169160ff8314610b865760ff92836001610b7a81958b610f5d565b92011690520116610b37565b634e487b7160e01b600052601160045260246000fd5b5050929060009060009460005b60ff81166004811015610bf65760ff610bc28288610f5d565b511660ff861610610bda575b5060010160ff16610ba9565b610beb91975060ff92945085610f5d565b511691856001610bce565b505093915093915060048210156107de5760ff83511660048110156107de576014019260009160ff6020830151166004811015610d7f5760180160ff6040840151166004811015610d5757601c019160ff6060850151166004811015610d6b579060ff91602001940151166004811015610d57576024019350604051958695602087016a023b2b732b930ba329030960ad1b9052602b87019060280190610c9c91610a2e565b6e0103837b93a3930b4ba1037b310309608d1b8152600f01610cbd91610a2e565b650103bb4ba34160d51b8152600601610cd591610a2e565b61016160f51b8152600201610ce991610a2e565b650161030b732160d51b8152600601610d0191610a2e565b7f2e2054686520616e696d616c2073686f756c64206861766520612000000000008152601b01610d3091610a2e565b6b1032bc383932b9b9b4b7b71760a11b81520360131981018252600c016108bf9082610860565b634e487b7160e01b85526032600452602485fd5b634e487b7160e01b86526032600452602486fd5b634e487b7160e01b84526032600452602484fd5b90602d546000198114610b865760018101602d556000818152602e6020526040812080546001600160a01b03191633178155939081815b60058110610e9f575050610e17610deb600094936020936002890155610a9c565b602c5460405163271aa34360e01b81529586936001600160a01b03909216928492839160048301610941565b03925af1918215610e9357600092610e5c575b508160018194950155337f509b9a7374c4e52d4f6a2c8c17c4685b28d88433332920c833afc0f7e891eb35600080a490565b6020949294813d602011610e8b575b81610e7860209383610860565b810103126101a857519193506001610e2a565b3d9150610e6b565b6040513d6000823e3d90fd5b9091602060019160ff8551169060ff8560031b92831b921b19161793019101610dca565b919060a060405190610ed58183610860565b36823780936000926001421615935b60058110610ef3575050505050565b8060ff610f0260019386610a1d565b511660ff610f108386610a1d565b51161080610f56575b15610f435760ff610f2a8286610a1d565b51165b60ff610f398388610a1d565b9116905201610ee4565b60ff610f4f8285610a1d565b5116610f2d565b5085610f19565b9060048110156107de5760051b019056fea26469706673582212207cd0a7932777ba5d391012ae056c53c20030ac76a65aa86692ec35afad37d02a64736f6c634300081a00330000000000000000000000004440b5ebebac3dc6c4d4eca62520ef783067eddf",
        "nonce": "0x13",
        "chainId": "0xaa289"
      },
      "additionalContracts": [],
      "isFixedGasLimit": false
    },
    {
      "hash": "0x0d9dddc8f2d4fa3e4f785e9f918b0536f4854ac17e9c2acaf2a1595d62df49a6",
      "transactionType": "CALL",
      "contractName": "BreedDalleNFT",
      "contractAddress": "0x96d9e26d3c6f71838ac2dcef23b256ed51a75e1a",
      "function": "mint(uint8[5])",
      "arguments": [
        "[1, 2, 3, 1, 1]"
      ],
      "transaction": {
        "from": "0x7fdc80eee466aaa3339c01beb8ddadbc98ecebf2",
        "to": "0x96d9e26d3c6f71838ac2dcef23b256ed51a75e1a",
        "gas": "0x1095c8",
        "value": "0x0",
        "input": "0xe9947f0c00000000000000000000000000000000000000000000000000000000000000010000000000000000000000000000000000000000000000000000000000000002000000000000000000000000000000000000000000000000000000000000000300000000000000000000000000000000000000000000000000000000000000010000000000000000000000000000000000000000000000000000000000000001",
        "nonce": "0x14",
        "chainId": "0xaa289"
      },
      "additionalContracts": [],
      "isFixedGasLimit": false
    },
    {
      "hash": "0x1c61708fa495a7b1a1070bae7d8ee22aff07188206b778d54b57da829b0c61aa",
      "transactionType": "CALL",
      "contractName": "BreedDalleNFT",
      "contractAddress": "0x96d9e26d3c6f71838ac2dcef23b256ed51a75e1a",
      "function": "mint(uint8[5])",
      "arguments": [
        "[1, 2, 3, 2, 1]"
      ],
      "transaction": {
        "from": "0x7fdc80eee466aaa3339c01beb8ddadbc98ecebf2",
        "to": "0x96d9e26d3c6f71838ac2dcef23b256ed51a75e1a",
        "gas": "0xf4da4",
        "value": "0x0",
        "input": "0xe9947f0c00000000000000000000000000000000000000000000000000000000000000010000000000000000000000000000000000000000000000000000000000000002000000000000000000000000000000000000000000000000000000000000000300000000000000000000000000000000000000000000000000000000000000020000000000000000000000000000000000000000000000000000000000000001",
        "nonce": "0x15",
        "chainId": "0xaa289"
      },
      "additionalContracts": [],
      "isFixedGasLimit": false
    },
    {
      "hash": "0x1636a039c90c3b07425e150e27b9dcc5e4f719c395931346b95352da2ecb4211",
      "transactionType": "CALL",
      "contractName": "BreedDalleNFT",
      "contractAddress": "0x96d9e26d3c6f71838ac2dcef23b256ed51a75e1a",
      "function": "crossBreedAndMint(uint256,uint256)",
      "arguments": [
        "0",
        "1"
      ],
      "transaction": {
        "from": "0x7fdc80eee466aaa3339c01beb8ddadbc98ecebf2",
        "to": "0x96d9e26d3c6f71838ac2dcef23b256ed51a75e1a",
        "gas": "0x10ad48",
        "value": "0x0",
        "input": "0x3a7090b700000000000000000000000000000000000000000000000000000000000000000000000000000000000000000000000000000000000000000000000000000001",
        "nonce": "0x16",
        "chainId": "0xaa289"
      },
      "additionalContracts": [],
      "isFixedGasLimit": false
    }
  ],
  "receipts": [
    {
      "status": "0x1",
      "cumulativeGasUsed": "0x0",
      "logs": [],
      "logsBloom": "0x00000000000000000000000000000000000000000000000000000000000000000000000000000000000000000000000000000000000000000000000000000000000000000000000000000000000000000000000000000000000000000000000000000000000000000000000000000000000000000000000000000000000000000000000000000000000000000000000000000000000000000000000000000000000000000000000000000000000000000000000000000000000000000000000000000000000000000000000000000000000000000000000000000000000000000000000000000000000000000000000000000000000000000000000000000000",
      "type": "0x0",
      "transactionHash": "0x206bbba82196cd847eea58627f8e84096e22bdb509315e9707ec7ff48b185c8a",
      "transactionIndex": "0x0",
      "blockHash": "0x24c417629cb96e40d39f4f281e422b8e66117addfa1f42b32435356c445507d8",
      "blockNumber": "0x2168d34",
      "gasUsed": "0x23f56e",
      "effectiveGasPrice": "0x3b9aca00",
      "from": "0x7fdc80eee466aaa3339c01beb8ddadbc98ecebf2",
      "to": "0x0000000000000000000000000000000000000000",
      "contractAddress": "0x96d9e26d3c6f71838ac2dcef23b256ed51a75e1a"
    },
    {
      "status": "0x1",
      "cumulativeGasUsed": "0x0",
      "logs": [
        {
          "address": "0x0352b37e5680e324e804b5a6e1addf0a064e201d",
          "topics": [
            "0x2ad3295f69a082e4c980d1f56ac904051ed752c30e3930799a4b8b1baa504bf3",
            "0x0000000000000000000000000000000000000000000000000000000000000271",
            "0x591a79aa3a48509f2b477dac8563045ab75a5a88206fbe124e25b5d43a71c58b"
          ],
          "data": "0x00000000000000000000000000000000000000000000000000000000000000cc0000000000000000000000004440b5ebebac3dc6c4d4eca62520ef783067eddf",
          "blockHash": "0x00d891ea6aeac32aabde6aa772df48f6fc9a37bc574c3460e1b9575a49f99705",
          "blockNumber": "0x2168d36",
          "transactionHash": "0x0d9dddc8f2d4fa3e4f785e9f918b0536f4854ac17e9c2acaf2a1595d62df49a6",
          "transactionIndex": "0x0",
          "logIndex": "0x0",
          "removed": false
        },
        {
          "address": "0x4440b5ebebac3dc6c4d4eca62520ef783067eddf",
          "topics": [
            "0xd469a7325078a9e6013e0619cb6e9472faf345ebd8469fe6bf9fc7ee67008e03",
            "0x00000000000000000000000096d9e26d3c6f71838ac2dcef23b256ed51a75e1a",
            "0x00000000000000000000000000000000000000000000000000000000000000cc"
          ],
          "data": "0x",
          "blockHash": "0x00d891ea6aeac32aabde6aa772df48f6fc9a37bc574c3460e1b9575a49f99705",
          "blockNumber": "0x2168d36",
          "transactionHash": "0x0d9dddc8f2d4fa3e4f785e9f918b0536f4854ac17e9c2acaf2a1595d62df49a6",
          "transactionIndex": "0x0",
          "logIndex": "0x1",
          "removed": false
        },
        {
          "address": "0x96d9e26d3c6f71838ac2dcef23b256ed51a75e1a",
          "topics": [
            "0x509b9a7374c4e52d4f6a2c8c17c4685b28d88433332920c833afc0f7e891eb35",
            "0x0000000000000000000000007fdc80eee466aaa3339c01beb8ddadbc98ecebf2",
            "0x0000000000000000000000000000000000000000000000000000000000000000",
            "0x00000000000000000000000000000000000000000000000000000000000000cc"
          ],
          "data": "0x",
          "blockHash": "0x00d891ea6aeac32aabde6aa772df48f6fc9a37bc574c3460e1b9575a49f99705",
          "blockNumber": "0x2168d36",
          "transactionHash": "0x0d9dddc8f2d4fa3e4f785e9f918b0536f4854ac17e9c2acaf2a1595d62df49a6",
          "transactionIndex": "0x0",
          "logIndex": "0x2",
          "removed": false
        }
      ],
      "logsBloom": "0x00000000040000000000000000000000010000000100000004000000020000000000000000000000000000000000904000000000000000002100020000000000000000400000000000000008000080000080000800000002000000000000000000000000020000000000000000000800000040000000000000000000000000000000000000000000100000000000000000000000000000000000000000000000000000100800000002000000000000010000000010000000000100000000000400000010000000000000000000000000000000000000000000000000008020000020004000000000000008000000020000000000000000000000000000040000",
      "type": "0x0",
      "transactionHash": "0x0d9dddc8f2d4fa3e4f785e9f918b0536f4854ac17e9c2acaf2a1595d62df49a6",
      "transactionIndex": "0x0",
      "blockHash": "0x00d891ea6aeac32aabde6aa772df48f6fc9a37bc574c3460e1b9575a49f99705",
      "blockNumber": "0x2168d36",
      "gasUsed": "0xb571a",
      "effectiveGasPrice": "0x3b9aca00",
      "from": "0x7fdc80eee466aaa3339c01beb8ddadbc98ecebf2",
      "to": "0x96d9e26d3c6f71838ac2dcef23b256ed51a75e1a",
      "contractAddress": "0x96d9e26d3c6f71838ac2dcef23b256ed51a75e1a"
    },
    {
      "status": "0x1",
      "cumulativeGasUsed": "0x0",
      "logs": [
        {
          "address": "0x0352b37e5680e324e804b5a6e1addf0a064e201d",
          "topics": [
            "0x2ad3295f69a082e4c980d1f56ac904051ed752c30e3930799a4b8b1baa504bf3",
            "0x0000000000000000000000000000000000000000000000000000000000000272",
            "0xc7acba1f65b6a39501da1f949901ea43c5cf21462698ec623981f4bcaa32b3d8"
          ],
          "data": "0x00000000000000000000000000000000000000000000000000000000000000cd0000000000000000000000004440b5ebebac3dc6c4d4eca62520ef783067eddf",
          "blockHash": "0x00d891ea6aeac32aabde6aa772df48f6fc9a37bc574c3460e1b9575a49f99705",
          "blockNumber": "0x2168d36",
          "transactionHash": "0x1c61708fa495a7b1a1070bae7d8ee22aff07188206b778d54b57da829b0c61aa",
          "transactionIndex": "0x1",
          "logIndex": "0x0",
          "removed": false
        },
        {
          "address": "0x4440b5ebebac3dc6c4d4eca62520ef783067eddf",
          "topics": [
            "0xd469a7325078a9e6013e0619cb6e9472faf345ebd8469fe6bf9fc7ee67008e03",
            "0x00000000000000000000000096d9e26d3c6f71838ac2dcef23b256ed51a75e1a",
            "0x00000000000000000000000000000000000000000000000000000000000000cd"
          ],
          "data": "0x",
          "blockHash": "0x00d891ea6aeac32aabde6aa772df48f6fc9a37bc574c3460e1b9575a49f99705",
          "blockNumber": "0x2168d36",
          "transactionHash": "0x1c61708fa495a7b1a1070bae7d8ee22aff07188206b778d54b57da829b0c61aa",
          "transactionIndex": "0x1",
          "logIndex": "0x1",
          "removed": false
        },
        {
          "address": "0x96d9e26d3c6f71838ac2dcef23b256ed51a75e1a",
          "topics": [
            "0x509b9a7374c4e52d4f6a2c8c17c4685b28d88433332920c833afc0f7e891eb35",
            "0x0000000000000000000000007fdc80eee466aaa3339c01beb8ddadbc98ecebf2",
            "0x0000000000000000000000000000000000000000000000000000000000000001",
            "0x00000000000000000000000000000000000000000000000000000000000000cd"
          ],
          "data": "0x",
          "blockHash": "0x00d891ea6aeac32aabde6aa772df48f6fc9a37bc574c3460e1b9575a49f99705",
          "blockNumber": "0x2168d36",
          "transactionHash": "0x1c61708fa495a7b1a1070bae7d8ee22aff07188206b778d54b57da829b0c61aa",
          "transactionIndex": "0x1",
          "logIndex": "0x2",
          "removed": false
        }
      ],
      "logsBloom": "0x000000000400000000000000100000000100000001000000040000000000000000000000000000000000000000008000000000000000000021000200000400000000000800000000000000080000a0000080000800040000000000000000000000000000000000000000000000000000000040000000000000000000000000000000000000000000000000000080000000000000000010000000000000000000000000100800000002000000000000011000000000000000000000000000000400000000000000100000000000000000000000000000000000000000008040000020004000000000000008000000020000000000008000800000000000040000",
      "type": "0x0",
      "transactionHash": "0x1c61708fa495a7b1a1070bae7d8ee22aff07188206b778d54b57da829b0c61aa",
      "transactionIndex": "0x1",
      "blockHash": "0x00d891ea6aeac32aabde6aa772df48f6fc9a37bc574c3460e1b9575a49f99705",
      "blockNumber": "0x2168d36",
      "gasUsed": "0xb144e",
      "effectiveGasPrice": "0x3b9aca00",
      "from": "0x7fdc80eee466aaa3339c01beb8ddadbc98ecebf2",
      "to": "0x96d9e26d3c6f71838ac2dcef23b256ed51a75e1a",
      "contractAddress": "0x96d9e26d3c6f71838ac2dcef23b256ed51a75e1a"
    },
    {
      "status": "0x1",
      "cumulativeGasUsed": "0x0",
      "logs": [
        {
          "address": "0x0352b37e5680e324e804b5a6e1addf0a064e201d",
          "topics": [
            "0x2ad3295f69a082e4c980d1f56ac904051ed752c30e3930799a4b8b1baa504bf3",
            "0x0000000000000000000000000000000000000000000000000000000000000273",
            "0xc7acba1f65b6a39501da1f949901ea43c5cf21462698ec623981f4bcaa32b3d8"
          ],
          "data": "0x00000000000000000000000000000000000000000000000000000000000000ce0000000000000000000000004440b5ebebac3dc6c4d4eca62520ef783067eddf",
          "blockHash": "0x00d891ea6aeac32aabde6aa772df48f6fc9a37bc574c3460e1b9575a49f99705",
          "blockNumber": "0x2168d36",
          "transactionHash": "0x1636a039c90c3b07425e150e27b9dcc5e4f719c395931346b95352da2ecb4211",
          "transactionIndex": "0x2",
          "logIndex": "0x0",
          "removed": false
        },
        {
          "address": "0x4440b5ebebac3dc6c4d4eca62520ef783067eddf",
          "topics": [
            "0xd469a7325078a9e6013e0619cb6e9472faf345ebd8469fe6bf9fc7ee67008e03",
            "0x00000000000000000000000096d9e26d3c6f71838ac2dcef23b256ed51a75e1a",
            "0x00000000000000000000000000000000000000000000000000000000000000ce"
          ],
          "data": "0x",
          "blockHash": "0x00d891ea6aeac32aabde6aa772df48f6fc9a37bc574c3460e1b9575a49f99705",
          "blockNumber": "0x2168d36",
          "transactionHash": "0x1636a039c90c3b07425e150e27b9dcc5e4f719c395931346b95352da2ecb4211",
          "transactionIndex": "0x2",
          "logIndex": "0x1",
          "removed": false
        },
        {
          "address": "0x96d9e26d3c6f71838ac2dcef23b256ed51a75e1a",
          "topics": [
            "0x509b9a7374c4e52d4f6a2c8c17c4685b28d88433332920c833afc0f7e891eb35",
            "0x0000000000000000000000007fdc80eee466aaa3339c01beb8ddadbc98ecebf2",
            "0x0000000000000000000000000000000000000000000000000000000000000002",
            "0x00000000000000000000000000000000000000000000000000000000000000ce"
          ],
          "data": "0x",
          "blockHash": "0x00d891ea6aeac32aabde6aa772df48f6fc9a37bc574c3460e1b9575a49f99705",
          "blockNumber": "0x2168d36",
          "transactionHash": "0x1636a039c90c3b07425e150e27b9dcc5e4f719c395931346b95352da2ecb4211",
          "transactionIndex": "0x2",
          "logIndex": "0x2",
          "removed": false
        },
        {
          "address": "0x96d9e26d3c6f71838ac2dcef23b256ed51a75e1a",
          "topics": [
            "0xea5fe08c3662b97aae427b46267d63bb9ca03a6440b30e8b93f54bd428269060",
            "0x0000000000000000000000007fdc80eee466aaa3339c01beb8ddadbc98ecebf2",
            "0x0000000000000000000000000000000000000000000000000000000000000000",
            "0x0000000000000000000000000000000000000000000000000000000000000001"
          ],
          "data": "0x00000000000000000000000000000000000000000000000000000000000000ce",
          "blockHash": "0x00d891ea6aeac32aabde6aa772df48f6fc9a37bc574c3460e1b9575a49f99705",
          "blockNumber": "0x2168d36",
          "transactionHash": "0x1636a039c90c3b07425e150e27b9dcc5e4f719c395931346b95352da2ecb4211",
          "transactionIndex": "0x2",
          "logIndex": "0x3",
          "removed": false
        }
      ],
      "logsBloom": "0x040000000400000000020000000000000100000001000000040000000000000001000000000000000000000000008000000000000000000021000200000400000000000800010800000000080000a0000080000800040000000000000000000000000000020000000000000000000800000040000000000000000000000000000001000000000000000000000000000000001000000000000000000000000000000000100800000002000100000000210000000000000000000000000800000400000000000000800000000000000000000000000000000000000000008060000020004000000000000008000000020000000000008000800000000000040000",
      "type": "0x0",
      "transactionHash": "0x1636a039c90c3b07425e150e27b9dcc5e4f719c395931346b95352da2ecb4211",
      "transactionIndex": "0x2",
      "blockHash": "0x00d891ea6aeac32aabde6aa772df48f6fc9a37bc574c3460e1b9575a49f99705",
      "blockNumber": "0x2168d36",
      "gasUsed": "0xb672b",
      "effectiveGasPrice": "0x3b9aca00",
      "from": "0x7fdc80eee466aaa3339c01beb8ddadbc98ecebf2",
      "to": "0x96d9e26d3c6f71838ac2dcef23b256ed51a75e1a",
      "contractAddress": "0x96d9e26d3c6f71838ac2dcef23b256ed51a75e1a"
    }
  ],
  "libraries": [],
  "pending": [],
  "returns": {},
  "timestamp": 1725654513,
  "chain": 696969,
  "commit": "f6899d7"
}